module Tests exposing (..)

import Expect exposing (Expectation)
import Fuzz exposing (Fuzzer, int, list, string)
import Test exposing (..)
import String
import Json.Decode as Decode
import Components.Block as Block
import Components.Transaction as Transaction


suite : Test
suite =
    describe "Unit tests"
        [ describe "Block"
            [ test "decodeGetBlockHash" <|
                \() ->
                    Expect.equal (Ok "deadbeef") <| Decode.decodeString Block.decodeGetBlockHash "{\"result\":\"deadbeef\"}"
            ]
        , describe "Transaction"
            [ test "decodeGetRawTransaction with a confirmed transaction" <|
                \() ->
                    let
                        result =
                            Decode.decodeString Transaction.decodeGetRawTransaction getRawTransactionConfirmedFixture

                        model =
                            case result of
                                Ok jsonModel ->
                                    jsonModel |> Transaction.modelFromJson

                                Err error ->
                                    Debug.crash <| toString error
                    in
                        Expect.equal 452 model.size
            , test "decodeGetRawTransaction with an unconfirmed transaction" <|
                \() ->
                    let
                        result =
                            Decode.decodeString Transaction.decodeGetRawTransaction getRawTransactionUnconfirmedFixture
                    in
                        case result of
                            Ok jsonModel ->
                                Expect.pass

                            Err error ->
                                Expect.fail error
            ]
        , describe "Fuzz test examples, using randomly generated input"
            -- XXX: keping them as examples
            [ fuzz (list int) "Lists always have positive length" <|
                \aList ->
                    List.length aList |> Expect.atLeast 0
            , fuzz (list int) "Sorting a list does not change its length" <|
                \aList ->
                    List.sort aList |> List.length |> Expect.equal (List.length aList)
            , fuzzWith { runs = 1000 } int "List.member will find an integer in a list containing it" <|
                \i ->
                    List.member i [ i ] |> Expect.true "If you see this, List.member returned False!"
            , fuzz2 string string "The length of a string equals the sum of its substrings' lengths" <|
                \s1 s2 ->
                    s1 ++ s2 |> String.length |> Expect.equal (String.length s1 + String.length s2)
            ]
        ]


getRawTransactionConfirmedFixture : String
getRawTransactionConfirmedFixture =
    """
{
  "result": {
    "hex": "010000000258bfcccc818221efefc5e84606ec0e03f52cbe9a656a92edb9d46e48227484990300000001ffffffff5c1cde6cdfe165d617ba425cbba35a2bbed141a21a707f128c454e08c72946660200000000ffffffff03bd1002000000000000001976a91453a6cd89247a125cd40ea2bdd28dc8dc1750825f88ace9c9fd060200000000001976a91453a6cd89247a125cd40ea2bdd28dc8dc1750825f88ac8e10607e0000000000001976a91489a7c60e95db6bfc65254073567a5b5fded367b788ac000000000000000002821cafae01000000b8c50200020000006a473044022008eafe82ef886d54a4693e9573d106fa6f7ca664e3843924eb415275f04547d1022043bae7f4d4611e88448f32b60e872f89fd38f46f7ebfa3bc93342cbbdbd9d1fc012102badaf6f911d76fbabfbaf069ea996219719c8938229974c7a818f2ee01c4231662b1bed60000000029c70200010000006b483045022100bc56b841e188632e1e0f507075be105616d7d910dc39dc3f7e9a2b627809c65802204051ce88c7a06e23101bbf9d29ca599bbc20c743ca210a5a84cd8122a8e22986012103fcda5a2f5c5277671a7f0c8d384fde4894245d5e7b59469ac551d87c1c3cf3ce",
    "txid": "71fec791fcc68781d6a747ebb3f04b9b395b7884396f75788660e165bd08dc01",
    "version": 1,
    "locktime": 0,
    "expiry": 0,
    "vin": [
      {
        "txid": "99847422486ed4b9ed926a659abe2cf5030eec0646e8c5efef218281ccccbf58",
        "vout": 3,
        "tree": 1,
        "sequence": 4294967295,
        "amountin": 72.25678978,
        "blockheight": 181688,
        "blockindex": 2,
        "scriptSig": {
          "asm": "3044022008eafe82ef886d54a4693e9573d106fa6f7ca664e3843924eb415275f04547d1022043bae7f4d4611e88448f32b60e872f89fd38f46f7ebfa3bc93342cbbdbd9d1fc01 02badaf6f911d76fbabfbaf069ea996219719c8938229974c7a818f2ee01c42316",
          "hex": "473044022008eafe82ef886d54a4693e9573d106fa6f7ca664e3843924eb415275f04547d1022043bae7f4d4611e88448f32b60e872f89fd38f46f7ebfa3bc93342cbbdbd9d1fc012102badaf6f911d76fbabfbaf069ea996219719c8938229974c7a818f2ee01c42316"
        }
      },
      {
        "txid": "664629c7084e458c127f701aa241d1be2b5aa3bb5c42ba17d665e1df6cde1c5c",
        "vout": 2,
        "tree": 0,
        "sequence": 4294967295,
        "amountin": 36.02821474,
        "blockheight": 182057,
        "blockindex": 1,
        "scriptSig": {
          "asm": "3045022100bc56b841e188632e1e0f507075be105616d7d910dc39dc3f7e9a2b627809c65802204051ce88c7a06e23101bbf9d29ca599bbc20c743ca210a5a84cd8122a8e2298601 03fcda5a2f5c5277671a7f0c8d384fde4894245d5e7b59469ac551d87c1c3cf3ce",
          "hex": "483045022100bc56b841e188632e1e0f507075be105616d7d910dc39dc3f7e9a2b627809c65802204051ce88c7a06e23101bbf9d29ca599bbc20c743ca210a5a84cd8122a8e22986012103fcda5a2f5c5277671a7f0c8d384fde4894245d5e7b59469ac551d87c1c3cf3ce"
        }
      }
    ],
    "vout": [
      {
        "value": 0.00135357,
        "n": 0,
        "version": 0,
        "scriptPubKey": {
          "asm": "OP_DUP OP_HASH160 53a6cd89247a125cd40ea2bdd28dc8dc1750825f OP_EQUALVERIFY OP_CHECKSIG",
          "hex": "76a91453a6cd89247a125cd40ea2bdd28dc8dc1750825f88ac",
          "reqSigs": 1,
          "type": "pubkeyhash",
          "addresses": [
            "DsYbDQ256aLuFh7cbLu9NYAFpwpeEyEXiVA"
          ]
        }
      },
      {
        "value": 87.07230185,
        "n": 1,
        "version": 0,
        "scriptPubKey": {
          "asm": "OP_DUP OP_HASH160 53a6cd89247a125cd40ea2bdd28dc8dc1750825f OP_EQUALVERIFY OP_CHECKSIG",
          "hex": "76a91453a6cd89247a125cd40ea2bdd28dc8dc1750825f88ac",
          "reqSigs": 1,
          "type": "pubkeyhash",
          "addresses": [
            "DsYbDQ256aLuFh7cbLu9NYAFpwpeEyEXiVA"
          ]
        }
      },
      {
        "value": 21.2022491,
        "n": 2,
        "version": 0,
        "scriptPubKey": {
          "asm": "OP_DUP OP_HASH160 89a7c60e95db6bfc65254073567a5b5fded367b7 OP_EQUALVERIFY OP_CHECKSIG",
          "hex": "76a91489a7c60e95db6bfc65254073567a5b5fded367b788ac",
          "reqSigs": 1,
          "type": "pubkeyhash",
          "addresses": [
            "DsdWm3q4mpvq26gfLL4Xr1d2UQi4qWH1vps"
          ]
        }
      }
    ],
    "blockhash": "00000000000000500c81f741ff0e55cf1f40c8ec761e0d69c64af08768fdb600",
    "blockheight": 182085,
    "confirmations": 15,
    "time": 1509434441,
    "blocktime": 1509434441
  },
  "error": null,
  "id": "0"
}
"""


getRawTransactionUnconfirmedFixture : String
getRawTransactionUnconfirmedFixture =
    """
{"result":{"hex":"010000000182b782986c0139a4bb36b52471aa2e2f593f7e852866171fafa6fd2e541f86e40200000000ffffffff6960b64d000000000000001976a9142bd1855c0706f87512079ed7d07c808726f89bea88acb0a957000000000000001976a914e25bff2eeecd8d1198dfba1a587b32389f84ba7888acdf024f000000000000001976a9147e93ea677b8c255bf8d9808dc1143d54250a373e88ac4b5ee9150000000000001976a91457001b75a0c23a1a46596ec7f07ca6bfd4d018be88ac027a58000000000000001976a914f3a58bfb92a5d321bd893630a45e3a7e55f0192488ac41ad51000000000000001976a9145c41f3185b8433a59bd8f7f88b936e45e0f62d2388aca3238b000000000000001976a9148cc9884c0cc78726ad051b17d46acf75724278e088ac39734e000000000000001976a9140de53b8c0145f2c28944ec2a17503a24323d081888ac6b1e56000000000000001976a914fabb7abfb3bbc3e9edefe2875766b09f588e854088acaef24c000000000000001976a9141edbb27d246ab759a3ad033cf557908798e59db788ac87c554000000000000001976a914e656ac074c04f6dca7947cc1fb0abfd9f40688f188acc6e988000000000000001976a9149c74e9e9e2771a3dec4ceaab99aba02596cb264688ac745a84000000000000001976a914f751b4adaa826f5c6e7ad3c3d718e7d29dced34888ac022e61000000000000001976a9144e80bdd82a2bb4f934c9da974db1b5f35d3690b188ac750953000000000000001976a914af524847814e98520b499ffb2a7cf93156cc5c3188ace0ef89000000000000001976a9142d666643afc0cdc431aa0a109eaedadb07670af888ac5752e9000000000000001976a9143e0b449ec56b65408bfe601ab6cfb82dd9ff590088ac0e9857000000000000001976a914737eadb9a42a3da1c0a43f2ec3043ac74621074c88ac595e58000000000000001976a914c5124eebb86fe8ff77dc7958c2809d7fb21c786788ac10825a000000000000001976a914c0b824f3182d388592a974d63239c91539a1ad0388ac804556000000000000001976a914e81e01f514ec86943861daaaae12f6ac0ddedaeb88ac988a4e000000000000001976a9142c298a3126c6b341c9e3a82a1502e97b55e9d3d088ac334854000000000000001976a91415363ea3769668f01e8bd79fea56cb2202a2827388aca5534f000000000000001976a914e6463fce22f1f02a95176341e28941ab774e09ea88ac187d4d000000000000001976a9141f96c519338c68b0e246fd81b13924829cd2118588ac282b52000000000000001976a914a5939770c549457ede12595d6f30c810178de35088aca3ce63000000000000001976a9148dd0a95e306b749f07f466f7e37d6a77df4ba6e188ac65fe87000000000000001976a9145b33a7471e74601af6e28a609ee20d204357a76488acf4c050000000000000001976a9146cdb921cbc93753cab5c4103b62cba2453e6c06488ac086551000000000000001976a91446bdb63783c8b1e2e2dba751e26e38ea06c0396788acf58f4f000000000000001976a914c63e4f573f331eeb253a3f54214d4d32a4c03af588ace3e95a000000000000001976a9148f61aff1169443fc0f83cffc28000bdf82e18a6488ac1ec761000000000000001976a91422b90eabb5655495943db473468f034f8df4758d88acf9b35f000000000000001976a9142a6858159160cadb2bc6e2dee6284544a6987b7388acff829d000000000000001976a914c0c67a99d6fda983d622b48eb6d5e29e1e1c2a8288acd2b261000000000000001976a9149153f227b9cb5e9023c1f41b75a077515927524b88ac177b51000000000000001976a9143b1eb915b0a4da9be7aa0147eb0a420f3524e6d188acf42ac8000000000000001976a9146212b54dcd395e7a583ac9b541aabc89e8ddb26c88ac31f47a000000000000001976a9146ae0b4e6339361d314362977dff28680853f7bb688ac044554000000000000001976a914d2091a61eeffa1cb42453270c0753ff79b1b89ca88aca3bb4e000000000000001976a9142ca8c6bd540cbfb8efa814a703c325b09884827c88ac41814d000000000000001976a9142e622c42664f325a525a11e6e7fa1b6fc343dd0a88ac53cd4c000000000000001976a91452b8d8b729ad306cfc3449620a82127ec2d8fcea88ac182b6b000000000000001976a914aab16147e2ecb1aebe8fd6fa765d1ba3baee908588ac6dc059000000000000001976a9142a4b78fbf0fdc04b942562c66d1549e5498b0ecc88ac308051000000000000001976a9148d9b74edff9cfe3563f5826ed0733f4a9752f0e688ac040e6b000000000000001976a91471d5c3bdd9e5ebb4e04afe6a281df6d6d840230c88acb38053000000000000001976a91439e6a6b884ae60a1b9db15a0bf65b390c8b1048688ac499e4d000000000000001976a914e3c7349c787e34420d28e59be95be39c659dcdcd88acff2254000000000000001976a9147f4433844a94333d82b883a403eb41e5cd89a77d88acc25aa7000000000000001976a9143e49395b2c1a3fc2f3cbda4b2743343d52f750f088acd14988000000000000001976a914146210c85e5a94c3e2ae27bc59dbd77ad7936e7b88aca8d167000000000000001976a914bafc4b2dd913b6024feead9575e444863aa1719f88aca81784000000000000001976a914653d9dafe5ec48f921c4c3f54b03309c710be3f288ac854568000000000000001976a91454f17a5f2a07e095966d8cba81a748cc3b80482088ac315052000000000000001976a91421db8886050375659535caf057f0eeed5ad506ac88ac6f7351000000000000001976a9148766bd81d1933285086e1c306448761de5250b6688acc811ac000000000000001976a9144afce05024f697a297aa0c31f18112e29edb89ff88acb5c553000000000000001976a914d9aa459815f2f88caa28d19371f1a1b6ae75d70088acc5916c000000000000001976a9146b1127a8b95bb752de7a47d8868177bbb669ff7188ac0d9c67010000000000001976a914f1e474f7bd80daf3b085f17a95a02f3d3b63b65188ac78b657000000000000001976a914b6ebb0e8319d325a8840797b2d1bbe8e351f089788ac049858000000000000001976a914f5a63eecbe1a682a868110eaea04346058f8694588ac5002de000000000000001976a9141974be0b7447a65a4c02b4a659b12e39391357d588acc28887000000000000001976a9146706e350628a8f5506d98a56bb360cb6a10d7e2788ac9d0553000000000000001976a91472afe93f48c488c8681a3819d50362ef2a504fbd88acbcc655000000000000001976a914f72ba0beb9457eead170fca9331e2dd490e9db1d88ac791365000000000000001976a914557451a7956bec3a21abd8189aac07b947188b9188ac24ee58000000000000001976a914ec737be18d0fd16241031d416751a73922fc4eae88ac7f4259000000000000001976a91435471706c5941e6f27bb50d0630ac12399c43f9088ac1a3769000000000000001976a91462dcbdbd7d478a2d3caf7e5f06376e693af9fba788ac9ef650000000000000001976a914d97ccb6d5fd18124c2e6405cde822d9b590c9de588acad8253000000000000001976a9141c7c5fb015d83f141d4eddf0b95dd363dc04670c88aceccc59000000000000001976a91468daaf2846fb2570a18ed13d503f280cdbd711d888ac30af51000000000000001976a91475faa5ad4c2cd175d1a3f6d068f94f2550a9688388accc5752000000000000001976a9147454504239d56c2e1e2dce293d109efb125b837f88ac880959000000000000001976a9143e7c1c01ede8d89be87bf6e1d77ec2b7407a1e8088acc64985000000000000001976a9148cb1456fd0b7976f539143e5e9d88f899fd55b9c88aca68750000000000000001976a91442f29459f363c0beb908adb1a1942b9074d2663888ac407aab000000000000001976a914059d8e88984f185868c5e8a44ca097550b4dd81088ac4149d8000000000000001976a91428e424b75241c18722118a5f368d36cc77386c2088ac049d91000000000000001976a914294ad8cf3bc9c92bdf68b35a638132232e7b1f9488ac2d1558000000000000001976a9146c5fc57654ad89debeca1616cc69aa82b514c5fb88ac16a78a020000000000001976a914bb3431180bb3cb001978b5d611f4717536b8a9b588ac92cc65000000000000001976a914e1784fed27041cefbca7d6af4fc8121ac3a7478688ac915086000000000000001976a914c3d8c13d414961ce1a813138129adcdef711ee5d88ac9b9f4c000000000000001976a914c27687cf76038c0b2a3e39600e3f99a8b7a74f4088ac87df88000000000000001976a91445cfe5957d901563dd21c04e80260dc4e126ce9088ac6d405a000000000000001976a914375725ae1f0d326a4055135b3671af1aa2b909c488ac34cb52000000000000001976a914cf34291f58d995087e8f2f7c63fd27cd89c4ade688aca0a358000000000000001976a914d6b57b174d2e9d4f832b968dfdc8c79ce3640ded88ac380d70000000000000001976a9148f13f98cbd7f63bd6aae1fdc5a9cebaf6ac9db3288ac6e8650000000000000001976a9149eafb5a9fb3127977f749b87d41a1b4559cc74b688acee8054000000000000001976a914de30dde7aff83d7a8694096057ddf384b4a6ae7388ac55ae52000000000000001976a9143e53e77b8786fbdbfbecd15fdc784ebf1e01972588ac7dd45d000000000000001976a914e7834a43e0706b091ddd2d6954ec63f429ab808a88acff5053000000000000001976a9148dcec88e8935fa80f0ebdfe0457db084d5946f2e88ac4a4f50000000000000001976a91403ee23d391a65487c8d03daf49cdd6f5aa73ab4588ac805959000000000000001976a914ae86328fa4c6c5f5be29bb05dfda30f10c84384e88ac22c4bd000000000000001976a914243b127f55a158f77a9d9f0e1542b52c553386c388acb04f7f000000000000001976a9145365c005b6ca6f1306d7d4af7c1456af26c85fc988ac101555000000000000001976a914602961bce04bdb2ede1dd4d96f0ef4a7972c0e6488ac27f34c000000000000001976a914e665768325004e0ebce6b9a35597a5c5466b6b6f88ac609c69000000000000001976a91493f7aadac8aec204e6b5d6b350d05c324203ad2088ac2ea750000000000000001976a9143a583c6d335565b8aa526a56f640f8179dff711488ac000000000000000001ffffffffffffffff00000000ffffffff6a47304402202fcfcb96425c2438aa317d8c51fc01eea780b77aa27bb4da491733271dbd261a02203cb4de800476b887667a7ba19f64512c49fb6af664c2198bb995371c20ce98f70121039bc283a79f8683662ed69d1c5f00f06f77df3b263e0cf210049581f9fd49a33c","txid":"1f0bf4006ef26d6e1fde23ad23bb4da231eaf8e9beef26643d4a2cde30048483","version":1,"locktime":0,"expiry":0,"vin":[{"txid":"e4861f542efda6af1f176628857e3f592f2eaa7124b536bba439016c9882b782","vout":2,"tree":0,"sequence":4294967295,"amountin":-1e-8,"blockheight":0,"blockindex":4294967295,"scriptSig":{"asm":"304402202fcfcb96425c2438aa317d8c51fc01eea780b77aa27bb4da491733271dbd261a02203cb4de800476b887667a7ba19f64512c49fb6af664c2198bb995371c20ce98f701 039bc283a79f8683662ed69d1c5f00f06f77df3b263e0cf210049581f9fd49a33c","hex":"47304402202fcfcb96425c2438aa317d8c51fc01eea780b77aa27bb4da491733271dbd261a02203cb4de800476b887667a7ba19f64512c49fb6af664c2198bb995371c20ce98f70121039bc283a79f8683662ed69d1c5f00f06f77df3b263e0cf210049581f9fd49a33c"}}],"vout":[{"value":0.0509296,"n":0,"version":0,"scriptPubKey":{"asm":"OP_DUP OP_HASH160 2bd1855c0706f87512079ed7d07c808726f89bea OP_EQUALVERIFY OP_CHECKSIG","hex":"76a9142bd1855c0706f87512079ed7d07c808726f89bea88ac","reqSigs":1,"type":"pubkeyhash","addresses":["DsUxbYSzjWe1jYn1rcb6nRQMvyEzEuBh64n"]}},{"value":0.05745072,"n":1,"version":0,"scriptPubKey":{"asm":"OP_DUP OP_HASH160 e25bff2eeecd8d1198dfba1a587b32389f84ba78 OP_EQUALVERIFY OP_CHECKSIG","hex":"76a914e25bff2eeecd8d1198dfba1a587b32389f84ba7888ac","reqSigs":1,"type":"pubkeyhash","addresses":["DsmbnQqMn6c7h7837VD71KT7NmXZLHyADBB"]}},{"value":0.05178079,"n":2,"version":0,"scriptPubKey":{"asm":"OP_DUP OP_HASH160 7e93ea677b8c255bf8d9808dc1143d54250a373e OP_EQUALVERIFY OP_CHECKSIG","hex":"76a9147e93ea677b8c255bf8d9808dc1143d54250a373e88ac","reqSigs":1,"type":"pubkeyhash","addresses":["DscWBpxdwSmss8zVc6sCYhq6fgaEmAsp4w8"]}},{"value":3.67615563,"n":3,"version":0,"scriptPubKey":{"asm":"OP_DUP OP_HASH160 57001b75a0c23a1a46596ec7f07ca6bfd4d018be OP_EQUALVERIFY OP_CHECKSIG","hex":"76a91457001b75a0c23a1a46596ec7f07ca6bfd4d018be88ac","reqSigs":1,"type":"pubkeyhash","addresses":["DsYtvQaAJGg8i6xXywWQZ6ieJwT8GvpTNLT"]}},{"value":0.05798402,"n":4,"version":0,"scriptPubKey":{"asm":"OP_DUP OP_HASH160 f3a58bfb92a5d321bd893630a45e3a7e55f01924 OP_EQUALVERIFY OP_CHECKSIG","hex":"76a914f3a58bfb92a5d321bd893630a45e3a7e55f0192488ac","reqSigs":1,"type":"pubkeyhash","addresses":["DsoBC1SRSgv7Cx7823bsiyRKS7jQ82NCGQ9"]}},{"value":0.05352769,"n":5,"version":0,"scriptPubKey":{"asm":"OP_DUP OP_HASH160 5c41f3185b8433a59bd8f7f88b936e45e0f62d23 OP_EQUALVERIFY OP_CHECKSIG","hex":"76a9145c41f3185b8433a59bd8f7f88b936e45e0f62d2388ac","reqSigs":1,"type":"pubkeyhash","addresses":["DsZNifLV8pD2KMwu1z36bcq2wLgCR9K46cA"]}},{"value":0.09118627,"n":6,"version":0,"scriptPubKey":{"asm":"OP_DUP OP_HASH160 8cc9884c0cc78726ad051b17d46acf75724278e0 OP_EQUALVERIFY OP_CHECKSIG","hex":"76a9148cc9884c0cc78726ad051b17d46acf75724278e088ac","reqSigs":1,"type":"pubkeyhash","addresses":["DsdoKX1C67kUDUoyDfy2NUmzc1KwVFKaY72"]}},{"value":0.05141305,"n":7,"version":0,"scriptPubKey":{"asm":"OP_DUP OP_HASH160 0de53b8c0145f2c28944ec2a17503a24323d0818 OP_EQUALVERIFY OP_CHECKSIG","hex":"76a9140de53b8c0145f2c28944ec2a17503a24323d081888ac","reqSigs":1,"type":"pubkeyhash","addresses":["DsSENtHUhgxzKhXCC7RaSPt5Q1UJnPqHgtF"]}},{"value":0.05643883,"n":8,"version":0,"scriptPubKey":{"asm":"OP_DUP OP_HASH160 fabb7abfb3bbc3e9edefe2875766b09f588e8540 OP_EQUALVERIFY OP_CHECKSIG","hex":"76a914fabb7abfb3bbc3e9edefe2875766b09f588e854088ac","reqSigs":1,"type":"pubkeyhash","addresses":["Dsopf1h3fwi6eZyVWKdN7NtJASrPS8Jxmwi"]}},{"value":0.05042862,"n":9,"version":0,"scriptPubKey":{"asm":"OP_DUP OP_HASH160 1edbb27d246ab759a3ad033cf557908798e59db7 OP_EQUALVERIFY OP_CHECKSIG","hex":"76a9141edbb27d246ab759a3ad033cf557908798e59db788ac","reqSigs":1,"type":"pubkeyhash","addresses":["DsTn4x1t5tG7eb2218yT1Kc7Cer3bmVWZYG"]}},{"value":0.05555591,"n":10,"version":0,"scriptPubKey":{"asm":"OP_DUP OP_HASH160 e656ac074c04f6dca7947cc1fb0abfd9f40688f1 OP_EQUALVERIFY OP_CHECKSIG","hex":"76a914e656ac074c04f6dca7947cc1fb0abfd9f40688f188ac","reqSigs":1,"type":"pubkeyhash","addresses":["DsmxpjdJPTkpx2m9XZCqHfP7xuPXzGv726S"]}},{"value":0.08972742,"n":11,"version":0,"scriptPubKey":{"asm":"OP_DUP OP_HASH160 9c74e9e9e2771a3dec4ceaab99aba02596cb2646 OP_EQUALVERIFY OP_CHECKSIG","hex":"76a9149c74e9e9e2771a3dec4ceaab99aba02596cb264688ac","reqSigs":1,"type":"pubkeyhash","addresses":["DsfEAxfUAvfHM4g81FpHqm8QaM6o9W4gtiD"]}},{"value":0.08673908,"n":12,"version":0,"scriptPubKey":{"asm":"OP_DUP OP_HASH160 f751b4adaa826f5c6e7ad3c3d718e7d29dced348 OP_EQUALVERIFY OP_CHECKSIG","hex":"76a914f751b4adaa826f5c6e7ad3c3d718e7d29dced34888ac","reqSigs":1,"type":"pubkeyhash","addresses":["DsoWcGq4GVyMByhHR583edrrZEF8ZH1fWjh"]}},{"value":0.0636877,"n":13,"version":0,"scriptPubKey":{"asm":"OP_DUP OP_HASH160 4e80bdd82a2bb4f934c9da974db1b5f35d3690b1 OP_EQUALVERIFY OP_CHECKSIG","hex":"76a9144e80bdd82a2bb4f934c9da974db1b5f35d3690b188ac","reqSigs":1,"type":"pubkeyhash","addresses":["DsY7zRWpr31LH2o8BJuvTxTrvKaf6quxeLo"]}},{"value":0.05441909,"n":14,"version":0,"scriptPubKey":{"asm":"OP_DUP OP_HASH160 af524847814e98520b499ffb2a7cf93156cc5c31 OP_EQUALVERIFY OP_CHECKSIG","hex":"76a914af524847814e98520b499ffb2a7cf93156cc5c3188ac","reqSigs":1,"type":"pubkeyhash","addresses":["DsgwvK5UzKmSsPGrjC3QzFmsMibpaoohG26"]}},{"value":0.0903984,"n":15,"version":0,"scriptPubKey":{"asm":"OP_DUP OP_HASH160 2d666643afc0cdc431aa0a109eaedadb07670af8 OP_EQUALVERIFY OP_CHECKSIG","hex":"76a9142d666643afc0cdc431aa0a109eaedadb07670af888ac","reqSigs":1,"type":"pubkeyhash","addresses":["DsV6xZuKF3XDqdxbPS2XSpVFPeHKn7w9fGD"]}},{"value":0.15290967,"n":16,"version":0,"scriptPubKey":{"asm":"OP_DUP OP_HASH160 3e0b449ec56b65408bfe601ab6cfb82dd9ff5900 OP_EQUALVERIFY OP_CHECKSIG","hex":"76a9143e0b449ec56b65408bfe601ab6cfb82dd9ff590088ac","reqSigs":1,"type":"pubkeyhash","addresses":["DsWcxtEyBd6464kQsXySREzXXEW7dfXCWyD"]}},{"value":0.05740558,"n":17,"version":0,"scriptPubKey":{"asm":"OP_DUP OP_HASH160 737eadb9a42a3da1c0a43f2ec3043ac74621074c OP_EQUALVERIFY OP_CHECKSIG","hex":"76a914737eadb9a42a3da1c0a43f2ec3043ac74621074c88ac","reqSigs":1,"type":"pubkeyhash","addresses":["DsbVaxGvftSsRYGp9Sf6SRQnzdCP66ZCmTH"]}},{"value":0.05791321,"n":18,"version":0,"scriptPubKey":{"asm":"OP_DUP OP_HASH160 c5124eebb86fe8ff77dc7958c2809d7fb21c7867 OP_EQUALVERIFY OP_CHECKSIG","hex":"76a914c5124eebb86fe8ff77dc7958c2809d7fb21c786788ac","reqSigs":1,"type":"pubkeyhash","addresses":["DsivvYJXUrKymUQtYsWioxAgi42WP89tzq4"]}},{"value":0.05931536,"n":19,"version":0,"scriptPubKey":{"asm":"OP_DUP OP_HASH160 c0b824f3182d388592a974d63239c91539a1ad03 OP_EQUALVERIFY OP_CHECKSIG","hex":"76a914c0b824f3182d388592a974d63239c91539a1ad0388ac","reqSigs":1,"type":"pubkeyhash","addresses":["DsiXupqMoZMuB5J28bjw3bBXxSEF6gBjMWS"]}},{"value":0.05653888,"n":20,"version":0,"scriptPubKey":{"asm":"OP_DUP OP_HASH160 e81e01f514ec86943861daaaae12f6ac0ddedaeb OP_EQUALVERIFY OP_CHECKSIG","hex":"76a914e81e01f514ec86943861daaaae12f6ac0ddedaeb88ac","reqSigs":1,"type":"pubkeyhash","addresses":["Dsn8ECuKk39GqGDCDHEzTXJMWVZuvG6kzaL"]}},{"value":0.05147288,"n":21,"version":0,"scriptPubKey":{"asm":"OP_DUP OP_HASH160 2c298a3126c6b341c9e3a82a1502e97b55e9d3d0 OP_EQUALVERIFY OP_CHECKSIG","hex":"76a9142c298a3126c6b341c9e3a82a1502e97b55e9d3d088ac","reqSigs":1,"type":"pubkeyhash","addresses":["DsUzQz7CuHFH6PXzbij9bnAzpuNVy55Svmg"]}},{"value":0.05523507,"n":22,"version":0,"scriptPubKey":{"asm":"OP_DUP OP_HASH160 15363ea3769668f01e8bd79fea56cb2202a28273 OP_EQUALVERIFY OP_CHECKSIG","hex":"76a91415363ea3769668f01e8bd79fea56cb2202a2827388ac","reqSigs":1,"type":"pubkeyhash","addresses":["DsSu4fSnu4gyxXACPiS9BdCBLvcmLJ8akin"]}},{"value":0.05198757,"n":23,"version":0,"scriptPubKey":{"asm":"OP_DUP OP_HASH160 e6463fce22f1f02a95176341e28941ab774e09ea OP_EQUALVERIFY OP_CHECKSIG","hex":"76a914e6463fce22f1f02a95176341e28941ab774e09ea88ac","reqSigs":1,"type":"pubkeyhash","addresses":["DsmxV4Z6Zo1xVgsDD7LteShTHKvnJG4qLJH"]}},{"value":0.05078296,"n":24,"version":0,"scriptPubKey":{"asm":"OP_DUP OP_HASH160 1f96c519338c68b0e246fd81b13924829cd21185 OP_EQUALVERIFY OP_CHECKSIG","hex":"76a9141f96c519338c68b0e246fd81b13924829cd2118588ac","reqSigs":1,"type":"pubkeyhash","addresses":["DsTqw4483trZf18NnKXm1k8PveS1wfaPmXp"]}},{"value":0.05385,"n":25,"version":0,"scriptPubKey":{"asm":"OP_DUP OP_HASH160 a5939770c549457ede12595d6f30c810178de350 OP_EQUALVERIFY OP_CHECKSIG","hex":"76a914a5939770c549457ede12595d6f30c810178de35088ac","reqSigs":1,"type":"pubkeyhash","addresses":["Dsg4PnvZEoMv4vA36TkBCii67yxX3SmP1RW"]}},{"value":0.06540963,"n":26,"version":0,"scriptPubKey":{"asm":"OP_DUP OP_HASH160 8dd0a95e306b749f07f466f7e37d6a77df4ba6e1 OP_EQUALVERIFY OP_CHECKSIG","hex":"76a9148dd0a95e306b749f07f466f7e37d6a77df4ba6e188ac","reqSigs":1,"type":"pubkeyhash","addresses":["DsdtkjYHhhwA2urwbZMJzgFPiWYLzCgUCtd"]}},{"value":0.08912485,"n":27,"version":0,"scriptPubKey":{"asm":"OP_DUP OP_HASH160 5b33a7471e74601af6e28a609ee20d204357a764 OP_EQUALVERIFY OP_CHECKSIG","hex":"76a9145b33a7471e74601af6e28a609ee20d204357a76488ac","reqSigs":1,"type":"pubkeyhash","addresses":["DsZH8rq783XDRoPRAEXn1GunqAjyfc1ZrJ1"]}},{"value":0.05292276,"n":28,"version":0,"scriptPubKey":{"asm":"OP_DUP OP_HASH160 6cdb921cbc93753cab5c4103b62cba2453e6c064 OP_EQUALVERIFY OP_CHECKSIG","hex":"76a9146cdb921cbc93753cab5c4103b62cba2453e6c06488ac","reqSigs":1,"type":"pubkeyhash","addresses":["DsatVWC4AjVFWgqPTZ82rJTDEJNt2gvZqgW"]}},{"value":0.0533428,"n":29,"version":0,"scriptPubKey":{"asm":"OP_DUP OP_HASH160 46bdb63783c8b1e2e2dba751e26e38ea06c03967 OP_EQUALVERIFY OP_CHECKSIG","hex":"76a91446bdb63783c8b1e2e2dba751e26e38ea06c0396788ac","reqSigs":1,"type":"pubkeyhash","addresses":["DsXQx4GJ34RooSP82kmLQsN8Qu5d8w2SA8x"]}},{"value":0.05214197,"n":30,"version":0,"scriptPubKey":{"asm":"OP_DUP OP_HASH160 c63e4f573f331eeb253a3f54214d4d32a4c03af5 OP_EQUALVERIFY OP_CHECKSIG","hex":"76a914c63e4f573f331eeb253a3f54214d4d32a4c03af588ac","reqSigs":1,"type":"pubkeyhash","addresses":["Dsj37vnLGZLBTFZ2LKwC6amqNymSyvFMH7b"]}},{"value":0.05958115,"n":31,"version":0,"scriptPubKey":{"asm":"OP_DUP OP_HASH160 8f61aff1169443fc0f83cffc28000bdf82e18a64 OP_EQUALVERIFY OP_CHECKSIG","hex":"76a9148f61aff1169443fc0f83cffc28000bdf82e18a6488ac","reqSigs":1,"type":"pubkeyhash","addresses":["Dse339Hwez7o839PNik2Pe5Rm3XzMStrrtq"]}},{"value":0.06407966,"n":32,"version":0,"scriptPubKey":{"asm":"OP_DUP OP_HASH160 22b90eabb5655495943db473468f034f8df4758d OP_EQUALVERIFY OP_CHECKSIG","hex":"76a91422b90eabb5655495943db473468f034f8df4758d88ac","reqSigs":1,"type":"pubkeyhash","addresses":["DsU8W9xdGS3HgX4tbXhXhGNJsxMmUVuC7Fk"]}},{"value":0.06271993,"n":33,"version":0,"scriptPubKey":{"asm":"OP_DUP OP_HASH160 2a6858159160cadb2bc6e2dee6284544a6987b73 OP_EQUALVERIFY OP_CHECKSIG","hex":"76a9142a6858159160cadb2bc6e2dee6284544a6987b7388ac","reqSigs":1,"type":"pubkeyhash","addresses":["DsUq8sSY52Fot6S358oiKmrCAkUi9baS8LM"]}},{"value":0.10322687,"n":34,"version":0,"scriptPubKey":{"asm":"OP_DUP OP_HASH160 c0c67a99d6fda983d622b48eb6d5e29e1e1c2a82 OP_EQUALVERIFY OP_CHECKSIG","hex":"76a914c0c67a99d6fda983d622b48eb6d5e29e1e1c2a8288ac","reqSigs":1,"type":"pubkeyhash","addresses":["DsiYCzpRDKuWimYTTvJgJsq8iqxa8aLoh2b"]}},{"value":0.0640277,"n":35,"version":0,"scriptPubKey":{"asm":"OP_DUP OP_HASH160 9153f227b9cb5e9023c1f41b75a077515927524b OP_EQUALVERIFY OP_CHECKSIG","hex":"76a9149153f227b9cb5e9023c1f41b75a077515927524b88ac","reqSigs":1,"type":"pubkeyhash","addresses":["DseDL2umU2fkUDxe4yyDg7fsEfaByCpQtLv"]}},{"value":0.05339927,"n":36,"version":0,"scriptPubKey":{"asm":"OP_DUP OP_HASH160 3b1eb915b0a4da9be7aa0147eb0a420f3524e6d1 OP_EQUALVERIFY OP_CHECKSIG","hex":"76a9143b1eb915b0a4da9be7aa0147eb0a420f3524e6d188ac","reqSigs":1,"type":"pubkeyhash","addresses":["DsWMWARFyrwYTV7tVH2gqJdREE7rRFvHCQe"]}},{"value":0.13118196,"n":37,"version":0,"scriptPubKey":{"asm":"OP_DUP OP_HASH160 6212b54dcd395e7a583ac9b541aabc89e8ddb26c OP_EQUALVERIFY OP_CHECKSIG","hex":"76a9146212b54dcd395e7a583ac9b541aabc89e8ddb26c88ac","reqSigs":1,"type":"pubkeyhash","addresses":["DsZuU86jZydLu8h1dT9ikHXuFcxxvyRHQ2P"]}},{"value":0.08057905,"n":38,"version":0,"scriptPubKey":{"asm":"OP_DUP OP_HASH160 6ae0b4e6339361d314362977dff28680853f7bb6 OP_EQUALVERIFY OP_CHECKSIG","hex":"76a9146ae0b4e6339361d314362977dff28680853f7bb688ac","reqSigs":1,"type":"pubkeyhash","addresses":["Dsai2Jey44s74orC9vH8toU3jdELvpyMvkj"]}},{"value":0.05522692,"n":39,"version":0,"scriptPubKey":{"asm":"OP_DUP OP_HASH160 d2091a61eeffa1cb42453270c0753ff79b1b89ca OP_EQUALVERIFY OP_CHECKSIG","hex":"76a914d2091a61eeffa1cb42453270c0753ff79b1b89ca88ac","reqSigs":1,"type":"pubkeyhash","addresses":["Dsk7UJCvSsrZfEEvBsPnBNx9N3YeZLgJH1c"]}},{"value":0.05159843,"n":40,"version":0,"scriptPubKey":{"asm":"OP_DUP OP_HASH160 2ca8c6bd540cbfb8efa814a703c325b09884827c OP_EQUALVERIFY OP_CHECKSIG","hex":"76a9142ca8c6bd540cbfb8efa814a703c325b09884827c88ac","reqSigs":1,"type":"pubkeyhash","addresses":["DsV33QezHPYSx6wwarAQ3vx1yQQMkAVkWrH"]}},{"value":0.05079361,"n":41,"version":0,"scriptPubKey":{"asm":"OP_DUP OP_HASH160 2e622c42664f325a525a11e6e7fa1b6fc343dd0a OP_EQUALVERIFY OP_CHECKSIG","hex":"76a9142e622c42664f325a525a11e6e7fa1b6fc343dd0a88ac","reqSigs":1,"type":"pubkeyhash","addresses":["DsVCABRh9yZg9ZbvcBGSbnM6oFNDUEDia8C"]}},{"value":0.05033299,"n":42,"version":0,"scriptPubKey":{"asm":"OP_DUP OP_HASH160 52b8d8b729ad306cfc3449620a82127ec2d8fcea OP_EQUALVERIFY OP_CHECKSIG","hex":"76a91452b8d8b729ad306cfc3449620a82127ec2d8fcea88ac","reqSigs":1,"type":"pubkeyhash","addresses":["DsYWJLXKvRXh74qtpvqSk9Nk94CzS37dYPF"]}},{"value":0.07023384,"n":43,"version":0,"scriptPubKey":{"asm":"OP_DUP OP_HASH160 aab16147e2ecb1aebe8fd6fa765d1ba3baee9085 OP_EQUALVERIFY OP_CHECKSIG","hex":"76a914aab16147e2ecb1aebe8fd6fa765d1ba3baee908588ac","reqSigs":1,"type":"pubkeyhash","addresses":["DsgXSrcw6y43o88yk4fb8xrontb1h9LbbzS"]}},{"value":0.05881965,"n":44,"version":0,"scriptPubKey":{"asm":"OP_DUP OP_HASH160 2a4b78fbf0fdc04b942562c66d1549e5498b0ecc OP_EQUALVERIFY OP_CHECKSIG","hex":"76a9142a4b78fbf0fdc04b942562c66d1549e5498b0ecc88ac","reqSigs":1,"type":"pubkeyhash","addresses":["DsUpYHR2qg6eph93DAvjJaAGhq54hQU71x6"]}},{"value":0.05341232,"n":45,"version":0,"scriptPubKey":{"asm":"OP_DUP OP_HASH160 8d9b74edff9cfe3563f5826ed0733f4a9752f0e6 OP_EQUALVERIFY OP_CHECKSIG","hex":"76a9148d9b74edff9cfe3563f5826ed0733f4a9752f0e688ac","reqSigs":1,"type":"pubkeyhash","addresses":["DsdsezoYrTBcpSDJ4jNxPgy5P4Xuq7cxJZT"]}},{"value":0.0701594,"n":46,"version":0,"scriptPubKey":{"asm":"OP_DUP OP_HASH160 71d5c3bdd9e5ebb4e04afe6a281df6d6d840230c OP_EQUALVERIFY OP_CHECKSIG","hex":"76a91471d5c3bdd9e5ebb4e04afe6a281df6d6d840230c88ac","reqSigs":1,"type":"pubkeyhash","addresses":["DsbLovjUmjFxS43fT6ZgWaRUjNBFN3PhGmx"]}},{"value":0.05472435,"n":47,"version":0,"scriptPubKey":{"asm":"OP_DUP OP_HASH160 39e6a6b884ae60a1b9db15a0bf65b390c8b10486 OP_EQUALVERIFY OP_CHECKSIG","hex":"76a91439e6a6b884ae60a1b9db15a0bf65b390c8b1048688ac","reqSigs":1,"type":"pubkeyhash","addresses":["DsWF4KJ46eQ1uu4GzQN7KRgt8ke5S61CkFj"]}},{"value":0.05086793,"n":48,"version":0,"scriptPubKey":{"asm":"OP_DUP OP_HASH160 e3c7349c787e34420d28e59be95be39c659dcdcd OP_EQUALVERIFY OP_CHECKSIG","hex":"76a914e3c7349c787e34420d28e59be95be39c659dcdcd88ac","reqSigs":1,"type":"pubkeyhash","addresses":["DsmjHX1yfRwioRT3Ceg8S6wXRhEhwjMYvnH"]}},{"value":0.05513983,"n":49,"version":0,"scriptPubKey":{"asm":"OP_DUP OP_HASH160 7f4433844a94333d82b883a403eb41e5cd89a77d OP_EQUALVERIFY OP_CHECKSIG","hex":"76a9147f4433844a94333d82b883a403eb41e5cd89a77d88ac","reqSigs":1,"type":"pubkeyhash","addresses":["DscZq1VqY3LbY6VQsFgbtVq3iShPm59Lehc"]}},{"value":0.10967746,"n":50,"version":0,"scriptPubKey":{"asm":"OP_DUP OP_HASH160 3e49395b2c1a3fc2f3cbda4b2743343d52f750f0 OP_EQUALVERIFY OP_CHECKSIG","hex":"76a9143e49395b2c1a3fc2f3cbda4b2743343d52f750f088ac","reqSigs":1,"type":"pubkeyhash","addresses":["DsWeF727VYY7PU6GQa3svHAZQjoLUiPsmaU"]}},{"value":0.08931793,"n":51,"version":0,"scriptPubKey":{"asm":"OP_DUP OP_HASH160 146210c85e5a94c3e2ae27bc59dbd77ad7936e7b OP_EQUALVERIFY OP_CHECKSIG","hex":"76a914146210c85e5a94c3e2ae27bc59dbd77ad7936e7b88ac","reqSigs":1,"type":"pubkeyhash","addresses":["DsSpgUysxNu9rR8t6NQpKqwuLsC6c89RUBg"]}},{"value":0.0680388,"n":52,"version":0,"scriptPubKey":{"asm":"OP_DUP OP_HASH160 bafc4b2dd913b6024feead9575e444863aa1719f OP_EQUALVERIFY OP_CHECKSIG","hex":"76a914bafc4b2dd913b6024feead9575e444863aa1719f88ac","reqSigs":1,"type":"pubkeyhash","addresses":["Dsi1bQnL4AQMJaU28R2iagTFdUCpoBXu9kq"]}},{"value":0.08656808,"n":53,"version":0,"scriptPubKey":{"asm":"OP_DUP OP_HASH160 653d9dafe5ec48f921c4c3f54b03309c710be3f2 OP_EQUALVERIFY OP_CHECKSIG","hex":"76a914653d9dafe5ec48f921c4c3f54b03309c710be3f288ac","reqSigs":1,"type":"pubkeyhash","addresses":["DsaCDYxVuNNseebGdaoRo7j8BY3FuYa4Vt1"]}},{"value":0.06833541,"n":54,"version":0,"scriptPubKey":{"asm":"OP_DUP OP_HASH160 54f17a5f2a07e095966d8cba81a748cc3b804820 OP_EQUALVERIFY OP_CHECKSIG","hex":"76a91454f17a5f2a07e095966d8cba81a748cc3b80482088ac","reqSigs":1,"type":"pubkeyhash","addresses":["DsYi3XjLp28ZqddpE1PYSfVXsXu7uT1AmnZ"]}},{"value":0.05394481,"n":55,"version":0,"scriptPubKey":{"asm":"OP_DUP OP_HASH160 21db8886050375659535caf057f0eeed5ad506ac OP_EQUALVERIFY OP_CHECKSIG","hex":"76a91421db8886050375659535caf057f0eeed5ad506ac88ac","reqSigs":1,"type":"pubkeyhash","addresses":["DsU3vnCeabzvLenoXBzhkkKo6RDJ24JG1RF"]}},{"value":0.05337967,"n":56,"version":0,"scriptPubKey":{"asm":"OP_DUP OP_HASH160 8766bd81d1933285086e1c306448761de5250b66 OP_EQUALVERIFY OP_CHECKSIG","hex":"76a9148766bd81d1933285086e1c306448761de5250b6688ac","reqSigs":1,"type":"pubkeyhash","addresses":["DsdJqnr2jSbBXL1zLn3ZqbuxKWBefXbXexJ"]}},{"value":0.11276744,"n":57,"version":0,"scriptPubKey":{"asm":"OP_DUP OP_HASH160 4afce05024f697a297aa0c31f18112e29edb89ff OP_EQUALVERIFY OP_CHECKSIG","hex":"76a9144afce05024f697a297aa0c31f18112e29edb89ff88ac","reqSigs":1,"type":"pubkeyhash","addresses":["DsXoQRmqn6wuwPt1qaUH7dnvWtAg1qNrjzn"]}},{"value":0.05490101,"n":58,"version":0,"scriptPubKey":{"asm":"OP_DUP OP_HASH160 d9aa459815f2f88caa28d19371f1a1b6ae75d700 OP_EQUALVERIFY OP_CHECKSIG","hex":"76a914d9aa459815f2f88caa28d19371f1a1b6ae75d70088ac","reqSigs":1,"type":"pubkeyhash","addresses":["Dskop6kebBWSE1KWaV2PyckQLo32Z5VeMJs"]}},{"value":0.07115205,"n":59,"version":0,"scriptPubKey":{"asm":"OP_DUP OP_HASH160 6b1127a8b95bb752de7a47d8868177bbb669ff71 OP_EQUALVERIFY OP_CHECKSIG","hex":"76a9146b1127a8b95bb752de7a47d8868177bbb669ff7188ac","reqSigs":1,"type":"pubkeyhash","addresses":["Dsaj2LuD6xVcnE9trLEFarXW1itFaRxhKoD"]}},{"value":0.23567373,"n":60,"version":0,"scriptPubKey":{"asm":"OP_DUP OP_HASH160 f1e474f7bd80daf3b085f17a95a02f3d3b63b651 OP_EQUALVERIFY OP_CHECKSIG","hex":"76a914f1e474f7bd80daf3b085f17a95a02f3d3b63b65188ac","reqSigs":1,"type":"pubkeyhash","addresses":["Dso1v28F3D2qDjPbRUq9VcMeVWwVqJ1Bjfh"]}},{"value":0.05748344,"n":61,"version":0,"scriptPubKey":{"asm":"OP_DUP OP_HASH160 b6ebb0e8319d325a8840797b2d1bbe8e351f0897 OP_EQUALVERIFY OP_CHECKSIG","hex":"76a914b6ebb0e8319d325a8840797b2d1bbe8e351f089788ac","reqSigs":1,"type":"pubkeyhash","addresses":["Dshe6pSjBMfZko1hXVYAbhbLJTrZyLCmHWa"]}},{"value":0.05806084,"n":62,"version":0,"scriptPubKey":{"asm":"OP_DUP OP_HASH160 f5a63eecbe1a682a868110eaea04346058f86945 OP_EQUALVERIFY OP_CHECKSIG","hex":"76a914f5a63eecbe1a682a868110eaea04346058f8694588ac","reqSigs":1,"type":"pubkeyhash","addresses":["DsoMnCPYxG2SYiTzpb2aUpjaUXtdYn1zMHp"]}},{"value":0.14549584,"n":63,"version":0,"scriptPubKey":{"asm":"OP_DUP OP_HASH160 1974be0b7447a65a4c02b4a659b12e39391357d5 OP_EQUALVERIFY OP_CHECKSIG","hex":"76a9141974be0b7447a65a4c02b4a659b12e39391357d588ac","reqSigs":1,"type":"pubkeyhash","addresses":["DsTHWEdN8UsndKhwW98o1Vr7aPcuGazd6Ks"]}},{"value":0.0888237,"n":64,"version":0,"scriptPubKey":{"asm":"OP_DUP OP_HASH160 6706e350628a8f5506d98a56bb360cb6a10d7e27 OP_EQUALVERIFY OP_CHECKSIG","hex":"76a9146706e350628a8f5506d98a56bb360cb6a10d7e2788ac","reqSigs":1,"type":"pubkeyhash","addresses":["DsaMfLminQDB2EnL23K4F2KqQx9nFtwPmiP"]}},{"value":0.05440925,"n":65,"version":0,"scriptPubKey":{"asm":"OP_DUP OP_HASH160 72afe93f48c488c8681a3819d50362ef2a504fbd OP_EQUALVERIFY OP_CHECKSIG","hex":"76a91472afe93f48c488c8681a3819d50362ef2a504fbd88ac","reqSigs":1,"type":"pubkeyhash","addresses":["DsbRKFpQdRN1Bc1asFwsyrrqmtgucbgh8QA"]}},{"value":0.05621436,"n":66,"version":0,"scriptPubKey":{"asm":"OP_DUP OP_HASH160 f72ba0beb9457eead170fca9331e2dd490e9db1d OP_EQUALVERIFY OP_CHECKSIG","hex":"76a914f72ba0beb9457eead170fca9331e2dd490e9db1d88ac","reqSigs":1,"type":"pubkeyhash","addresses":["DsoVpf8fW2EZZGWbrc9io8jiBzqfRVyGbSe"]}},{"value":0.06624121,"n":67,"version":0,"scriptPubKey":{"asm":"OP_DUP OP_HASH160 557451a7956bec3a21abd8189aac07b947188b91 OP_EQUALVERIFY OP_CHECKSIG","hex":"76a914557451a7956bec3a21abd8189aac07b947188b9188ac","reqSigs":1,"type":"pubkeyhash","addresses":["DsYkkGig7h7WwURQzaURLrG2LiwPVqXke9t"]}},{"value":0.05828132,"n":68,"version":0,"scriptPubKey":{"asm":"OP_DUP OP_HASH160 ec737be18d0fd16241031d416751a73922fc4eae OP_EQUALVERIFY OP_CHECKSIG","hex":"76a914ec737be18d0fd16241031d416751a73922fc4eae88ac","reqSigs":1,"type":"pubkeyhash","addresses":["DsnX9JfY754e6iGMqXpba9wX65SNuBgBWZ5"]}},{"value":0.05849727,"n":69,"version":0,"scriptPubKey":{"asm":"OP_DUP OP_HASH160 35471706c5941e6f27bb50d0630ac12399c43f90 OP_EQUALVERIFY OP_CHECKSIG","hex":"76a91435471706c5941e6f27bb50d0630ac12399c43f9088ac","reqSigs":1,"type":"pubkeyhash","addresses":["DsVpcU1k5YiFcU9bB3G3kMbeBAYssCgsYLA"]}},{"value":0.06895386,"n":70,"version":0,"scriptPubKey":{"asm":"OP_DUP OP_HASH160 62dcbdbd7d478a2d3caf7e5f06376e693af9fba7 OP_EQUALVERIFY OP_CHECKSIG","hex":"76a91462dcbdbd7d478a2d3caf7e5f06376e693af9fba788ac","reqSigs":1,"type":"pubkeyhash","addresses":["DsZye9bVHLLnQztS5Cs8Bti72hYpa2ZYmU8"]}},{"value":0.05306014,"n":71,"version":0,"scriptPubKey":{"asm":"OP_DUP OP_HASH160 d97ccb6d5fd18124c2e6405cde822d9b590c9de5 OP_EQUALVERIFY OP_CHECKSIG","hex":"76a914d97ccb6d5fd18124c2e6405cde822d9b590c9de588ac","reqSigs":1,"type":"pubkeyhash","addresses":["DsknscwYDVY7i1q3HPj6f5LopwjPvwwn6tc"]}},{"value":0.05472941,"n":72,"version":0,"scriptPubKey":{"asm":"OP_DUP OP_HASH160 1c7c5fb015d83f141d4eddf0b95dd363dc04670c OP_EQUALVERIFY OP_CHECKSIG","hex":"76a9141c7c5fb015d83f141d4eddf0b95dd363dc04670c88ac","reqSigs":1,"type":"pubkeyhash","addresses":["DsTZXQSgFaREtrVBZyzC4Vssn7ZcdScEWYv"]}},{"value":0.05885164,"n":73,"version":0,"scriptPubKey":{"asm":"OP_DUP OP_HASH160 68daaf2846fb2570a18ed13d503f280cdbd711d8 OP_EQUALVERIFY OP_CHECKSIG","hex":"76a91468daaf2846fb2570a18ed13d503f280cdbd711d888ac","reqSigs":1,"type":"pubkeyhash","addresses":["DsaXKjps1hwD8XoC2EP3xQqgPATNmCqiNzF"]}},{"value":0.05353264,"n":74,"version":0,"scriptPubKey":{"asm":"OP_DUP OP_HASH160 75faa5ad4c2cd175d1a3f6d068f94f2550a96883 OP_EQUALVERIFY OP_CHECKSIG","hex":"76a91475faa5ad4c2cd175d1a3f6d068f94f2550a9688388ac","reqSigs":1,"type":"pubkeyhash","addresses":["Dsbiip9QTVHsppquoctSA45k2qKN3Qrfa1V"]}},{"value":0.05396428,"n":75,"version":0,"scriptPubKey":{"asm":"OP_DUP OP_HASH160 7454504239d56c2e1e2dce293d109efb125b837f OP_EQUALVERIFY OP_CHECKSIG","hex":"76a9147454504239d56c2e1e2dce293d109efb125b837f88ac","reqSigs":1,"type":"pubkeyhash","addresses":["DsbZzstUGtoSaCnTa6To3NXEPacVnR3YV3K"]}},{"value":0.05835144,"n":76,"version":0,"scriptPubKey":{"asm":"OP_DUP OP_HASH160 3e7c1c01ede8d89be87bf6e1d77ec2b7407a1e80 OP_EQUALVERIFY OP_CHECKSIG","hex":"76a9143e7c1c01ede8d89be87bf6e1d77ec2b7407a1e8088ac","reqSigs":1,"type":"pubkeyhash","addresses":["DsWfJ4bZ8mYajq7uwceWcnk3PdLqRmiJH1u"]}},{"value":0.08735174,"n":77,"version":0,"scriptPubKey":{"asm":"OP_DUP OP_HASH160 8cb1456fd0b7976f539143e5e9d88f899fd55b9c OP_EQUALVERIFY OP_CHECKSIG","hex":"76a9148cb1456fd0b7976f539143e5e9d88f899fd55b9c88ac","reqSigs":1,"type":"pubkeyhash","addresses":["DsdnpTJqEobqSc3Ho14EtmDTi9e45DS9rhg"]}},{"value":0.05277606,"n":78,"version":0,"scriptPubKey":{"asm":"OP_DUP OP_HASH160 42f29459f363c0beb908adb1a1942b9074d26638 OP_EQUALVERIFY OP_CHECKSIG","hex":"76a91442f29459f363c0beb908adb1a1942b9074d2663888ac","reqSigs":1,"type":"pubkeyhash","addresses":["DsX4tgox1fHaJ47T23zQReNUc5q1RZGUgZG"]}},{"value":0.11237952,"n":79,"version":0,"scriptPubKey":{"asm":"OP_DUP OP_HASH160 059d8e88984f185868c5e8a44ca097550b4dd810 OP_EQUALVERIFY OP_CHECKSIG","hex":"76a914059d8e88984f185868c5e8a44ca097550b4dd81088ac","reqSigs":1,"type":"pubkeyhash","addresses":["DsRUbcdGLgKmvGBtzdcnRYrxyWwi63hJy4c"]}},{"value":0.14174529,"n":80,"version":0,"scriptPubKey":{"asm":"OP_DUP OP_HASH160 28e424b75241c18722118a5f368d36cc77386c20 OP_EQUALVERIFY OP_CHECKSIG","hex":"76a91428e424b75241c18722118a5f368d36cc77386c2088ac","reqSigs":1,"type":"pubkeyhash","addresses":["DsUh7pnaLJsuBoJpL9WSYDMAchcL4ZMSNej"]}},{"value":0.09542916,"n":81,"version":0,"scriptPubKey":{"asm":"OP_DUP OP_HASH160 294ad8cf3bc9c92bdf68b35a638132232e7b1f94 OP_EQUALVERIFY OP_CHECKSIG","hex":"76a914294ad8cf3bc9c92bdf68b35a638132232e7b1f9488ac","reqSigs":1,"type":"pubkeyhash","addresses":["DsUjErkToxwg4kxsvYY5usCa1Y25e7Ud8zq"]}},{"value":0.05772589,"n":82,"version":0,"scriptPubKey":{"asm":"OP_DUP OP_HASH160 6c5fc57654ad89debeca1616cc69aa82b514c5fb OP_EQUALVERIFY OP_CHECKSIG","hex":"76a9146c5fc57654ad89debeca1616cc69aa82b514c5fb88ac","reqSigs":1,"type":"pubkeyhash","addresses":["DsaqwCTUgDzVHmLJRaRkJiFxsM24RzjWYsh"]}},{"value":0.42641174,"n":83,"version":0,"scriptPubKey":{"asm":"OP_DUP OP_HASH160 bb3431180bb3cb001978b5d611f4717536b8a9b5 OP_EQUALVERIFY OP_CHECKSIG","hex":"76a914bb3431180bb3cb001978b5d611f4717536b8a9b588ac","reqSigs":1,"type":"pubkeyhash","addresses":["Dsi2kNehPkyNhDAbCCLaNbkjPCmNRePLcmh"]}},{"value":0.06671506,"n":84,"version":0,"scriptPubKey":{"asm":"OP_DUP OP_HASH160 e1784fed27041cefbca7d6af4fc8121ac3a74786 OP_EQUALVERIFY OP_CHECKSIG","hex":"76a914e1784fed27041cefbca7d6af4fc8121ac3a7478688ac","reqSigs":1,"type":"pubkeyhash","addresses":["DsmX5f2muUTK8WRfbMWZcqpgmTREvretV6B"]}},{"value":0.08802449,"n":85,"version":0,"scriptPubKey":{"asm":"OP_DUP OP_HASH160 c3d8c13d414961ce1a813138129adcdef711ee5d OP_EQUALVERIFY OP_CHECKSIG","hex":"76a914c3d8c13d414961ce1a813138129adcdef711ee5d88ac","reqSigs":1,"type":"pubkeyhash","addresses":["DsipSvEAa18he2gG1EfWbB73rxK2aGFMhdX"]}},{"value":0.05021595,"n":86,"version":0,"scriptPubKey":{"asm":"OP_DUP OP_HASH160 c27687cf76038c0b2a3e39600e3f99a8b7a74f40 OP_EQUALVERIFY OP_CHECKSIG","hex":"76a914c27687cf76038c0b2a3e39600e3f99a8b7a74f4088ac","reqSigs":1,"type":"pubkeyhash","addresses":["Dsih8aHm2Ju8EF7WhDoPvDbZ9vfVq7nKHRZ"]}},{"value":0.08970119,"n":87,"version":0,"scriptPubKey":{"asm":"OP_DUP OP_HASH160 45cfe5957d901563dd21c04e80260dc4e126ce90 OP_EQUALVERIFY OP_CHECKSIG","hex":"76a91445cfe5957d901563dd21c04e80260dc4e126ce9088ac","reqSigs":1,"type":"pubkeyhash","addresses":["DsXL3AbCrT5uRZTyHt2uYCMRgjvoDVJRwAQ"]}},{"value":0.05914733,"n":88,"version":0,"scriptPubKey":{"asm":"OP_DUP OP_HASH160 375725ae1f0d326a4055135b3671af1aa2b909c4 OP_EQUALVERIFY OP_CHECKSIG","hex":"76a914375725ae1f0d326a4055135b3671af1aa2b909c488ac","reqSigs":1,"type":"pubkeyhash","addresses":["DsW1X45F2JEzL9VbAxV3X2rjAJ8fysaD5eM"]}},{"value":0.05425972,"n":89,"version":0,"scriptPubKey":{"asm":"OP_DUP OP_HASH160 cf34291f58d995087e8f2f7c63fd27cd89c4ade6 OP_EQUALVERIFY OP_CHECKSIG","hex":"76a914cf34291f58d995087e8f2f7c63fd27cd89c4ade688ac","reqSigs":1,"type":"pubkeyhash","addresses":["DsjrVrKja5bTiarF7r95wFPGeGKPbg4e2KN"]}},{"value":0.05809056,"n":90,"version":0,"scriptPubKey":{"asm":"OP_DUP OP_HASH160 d6b57b174d2e9d4f832b968dfdc8c79ce3640ded OP_EQUALVERIFY OP_CHECKSIG","hex":"76a914d6b57b174d2e9d4f832b968dfdc8c79ce3640ded88ac","reqSigs":1,"type":"pubkeyhash","addresses":["DskYBVzRkzxUdYyxZvGk6wH8C3KD7nZxcP9"]}},{"value":0.07343416,"n":91,"version":0,"scriptPubKey":{"asm":"OP_DUP OP_HASH160 8f13f98cbd7f63bd6aae1fdc5a9cebaf6ac9db32 OP_EQUALVERIFY OP_CHECKSIG","hex":"76a9148f13f98cbd7f63bd6aae1fdc5a9cebaf6ac9db3288ac","reqSigs":1,"type":"pubkeyhash","addresses":["Dse1S3jdxWk17DuJRXTkZ2szXaxuSC8CioR"]}},{"value":0.05277294,"n":92,"version":0,"scriptPubKey":{"asm":"OP_DUP OP_HASH160 9eafb5a9fb3127977f749b87d41a1b4559cc74b6 OP_EQUALVERIFY OP_CHECKSIG","hex":"76a9149eafb5a9fb3127977f749b87d41a1b4559cc74b688ac","reqSigs":1,"type":"pubkeyhash","addresses":["DsfRxkFwkX7NnxERj9HcWFf5GAeetPTuEhe"]}},{"value":0.0553803,"n":93,"version":0,"scriptPubKey":{"asm":"OP_DUP OP_HASH160 de30dde7aff83d7a8694096057ddf384b4a6ae73 OP_EQUALVERIFY OP_CHECKSIG","hex":"76a914de30dde7aff83d7a8694096057ddf384b4a6ae7388ac","reqSigs":1,"type":"pubkeyhash","addresses":["DsmDk3LqNawTSUb6c3cd5oP5sjZc75BmS2c"]}},{"value":0.05418581,"n":94,"version":0,"scriptPubKey":{"asm":"OP_DUP OP_HASH160 3e53e77b8786fbdbfbecd15fdc784ebf1e019725 OP_EQUALVERIFY OP_CHECKSIG","hex":"76a9143e53e77b8786fbdbfbecd15fdc784ebf1e01972588ac","reqSigs":1,"type":"pubkeyhash","addresses":["DsWeTu6HhrvyzttfAAAr5yeGkVTDRUxyrNg"]}},{"value":0.06149245,"n":95,"version":0,"scriptPubKey":{"asm":"OP_DUP OP_HASH160 e7834a43e0706b091ddd2d6954ec63f429ab808a OP_EQUALVERIFY OP_CHECKSIG","hex":"76a914e7834a43e0706b091ddd2d6954ec63f429ab808a88ac","reqSigs":1,"type":"pubkeyhash","addresses":["Dsn52rwRwwwRZoZNvRa8NfayUxqCMPVWoJw"]}},{"value":0.05460223,"n":96,"version":0,"scriptPubKey":{"asm":"OP_DUP OP_HASH160 8dcec88e8935fa80f0ebdfe0457db084d5946f2e OP_EQUALVERIFY OP_CHECKSIG","hex":"76a9148dcec88e8935fa80f0ebdfe0457db084d5946f2e88ac","reqSigs":1,"type":"pubkeyhash","addresses":["DsdtiV3SKetS9Hv85JezjkyhVDt83zpeiEn"]}},{"value":0.05263178,"n":97,"version":0,"scriptPubKey":{"asm":"OP_DUP OP_HASH160 03ee23d391a65487c8d03daf49cdd6f5aa73ab45 OP_EQUALVERIFY OP_CHECKSIG","hex":"76a91403ee23d391a65487c8d03daf49cdd6f5aa73ab4588ac","reqSigs":1,"type":"pubkeyhash","addresses":["DsRKgoG1Up7JrVRZ8bkG2zQBDND1gvuW8fu"]}},{"value":0.05855616,"n":98,"version":0,"scriptPubKey":{"asm":"OP_DUP OP_HASH160 ae86328fa4c6c5f5be29bb05dfda30f10c84384e OP_EQUALVERIFY OP_CHECKSIG","hex":"76a914ae86328fa4c6c5f5be29bb05dfda30f10c84384e88ac","reqSigs":1,"type":"pubkeyhash","addresses":["Dsgshq1ptMaPCY65nUpjeYeZxN3NTtsvqrc"]}},{"value":0.12436514,"n":99,"version":0,"scriptPubKey":{"asm":"OP_DUP OP_HASH160 243b127f55a158f77a9d9f0e1542b52c553386c3 OP_EQUALVERIFY OP_CHECKSIG","hex":"76a914243b127f55a158f77a9d9f0e1542b52c553386c388ac","reqSigs":1,"type":"pubkeyhash","addresses":["DsUGUakNiy2shwudnJcgKwLE4wthYmjZidN"]}},{"value":0.08343472,"n":100,"version":0,"scriptPubKey":{"asm":"OP_DUP OP_HASH160 5365c005b6ca6f1306d7d4af7c1456af26c85fc9 OP_EQUALVERIFY OP_CHECKSIG","hex":"76a9145365c005b6ca6f1306d7d4af7c1456af26c85fc988ac","reqSigs":1,"type":"pubkeyhash","addresses":["DsYZsU59rzWQgrSsHdbV85jWNwrjvyDntRT"]}},{"value":0.05575952,"n":101,"version":0,"scriptPubKey":{"asm":"OP_DUP OP_HASH160 602961bce04bdb2ede1dd4d96f0ef4a7972c0e64 OP_EQUALVERIFY OP_CHECKSIG","hex":"76a914602961bce04bdb2ede1dd4d96f0ef4a7972c0e6488ac","reqSigs":1,"type":"pubkeyhash","addresses":["DsZjMw6wejsRo9RETe8Eyubeg8Fxu8eBRXM"]}},{"value":0.05042983,"n":102,"version":0,"scriptPubKey":{"asm":"OP_DUP OP_HASH160 e665768325004e0ebce6b9a35597a5c5466b6b6f OP_EQUALVERIFY OP_CHECKSIG","hex":"76a914e665768325004e0ebce6b9a35597a5c5466b6b6f88ac","reqSigs":1,"type":"pubkeyhash","addresses":["Dsmy8TKWvDeEjhHgfgdtZbjTwZk22BKDYfr"]}},{"value":0.06921312,"n":103,"version":0,"scriptPubKey":{"asm":"OP_DUP OP_HASH160 93f7aadac8aec204e6b5d6b350d05c324203ad20 OP_EQUALVERIFY OP_CHECKSIG","hex":"76a91493f7aadac8aec204e6b5d6b350d05c324203ad2088ac","reqSigs":1,"type":"pubkeyhash","addresses":["DseTHWrxteMgDySuaeLjbxS3W5u6JeZkua9"]}},{"value":0.05285678,"n":104,"version":0,"scriptPubKey":{"asm":"OP_DUP OP_HASH160 3a583c6d335565b8aa526a56f640f8179dff7114 OP_EQUALVERIFY OP_CHECKSIG","hex":"76a9143a583c6d335565b8aa526a56f640f8179dff711488ac","reqSigs":1,"type":"pubkeyhash","addresses":["DsWHQPJbs9GMKQkxcpEhzrYfJYEMTAknFev"]}}],"blockheight":0},"error":null,"id":0}
"""
